{
  "_format": "hh-sol-artifact-1",
  "contractName": "SCM",
  "sourceName": "contracts/SCM.sol",
  "abi": [
    {
      "inputs": [],
      "stateMutability": "nonpayable",
      "type": "constructor"
    },
    {
      "anonymous": false,
      "inputs": [
        {
          "indexed": false,
          "internalType": "string",
          "name": "productName",
          "type": "string"
        },
        {
          "indexed": false,
          "internalType": "uint256",
          "name": "quantity",
          "type": "uint256"
        },
        {
          "indexed": false,
          "internalType": "address",
          "name": "buyer",
          "type": "address"
        }
      ],
      "name": "BoughtProduct",
      "type": "event"
    },
    {
      "anonymous": false,
      "inputs": [
        {
          "indexed": false,
          "internalType": "uint256",
          "name": "identifier",
          "type": "uint256"
        },
        {
          "indexed": false,
          "internalType": "uint256",
          "name": "quantity",
          "type": "uint256"
        },
        {
          "indexed": false,
          "internalType": "string",
          "name": "productName",
          "type": "string"
        }
      ],
      "name": "UploadProduct",
      "type": "event"
    },
    {
      "inputs": [
        {
          "internalType": "uint256",
          "name": "_identifier",
          "type": "uint256"
        },
        {
          "internalType": "uint256",
          "name": "_quantity",
          "type": "uint256"
        }
      ],
      "name": "buyProduct",
      "outputs": [
        {
          "internalType": "bool",
          "name": "",
          "type": "bool"
        }
      ],
      "stateMutability": "payable",
      "type": "function"
    },
    {
      "inputs": [
        {
          "internalType": "uint256",
          "name": "_identifier",
          "type": "uint256"
        }
      ],
      "name": "getProductQuantity",
      "outputs": [
        {
          "internalType": "uint256",
          "name": "",
          "type": "uint256"
        }
      ],
      "stateMutability": "view",
      "type": "function"
    },
    {
      "inputs": [
        {
          "internalType": "uint256",
          "name": "",
          "type": "uint256"
        }
      ],
      "name": "history",
      "outputs": [
        {
          "internalType": "address",
          "name": "managerInfo",
          "type": "address"
        },
        {
          "internalType": "uint256",
          "name": "timeOfDelivery",
          "type": "uint256"
        },
        {
          "internalType": "string",
          "name": "details",
          "type": "string"
        }
      ],
      "stateMutability": "view",
      "type": "function"
    },
    {
      "inputs": [],
      "name": "identifier",
      "outputs": [
        {
          "internalType": "uint256",
          "name": "",
          "type": "uint256"
        }
      ],
      "stateMutability": "view",
      "type": "function"
    },
    {
      "inputs": [
        {
          "internalType": "address",
          "name": "",
          "type": "address"
        }
      ],
      "name": "orderCount",
      "outputs": [
        {
          "internalType": "uint256",
          "name": "",
          "type": "uint256"
        }
      ],
      "stateMutability": "view",
      "type": "function"
    },
    {
      "inputs": [
        {
          "internalType": "address",
          "name": "",
          "type": "address"
        },
        {
          "internalType": "uint256",
          "name": "",
          "type": "uint256"
        }
      ],
      "name": "orders",
      "outputs": [
        {
          "internalType": "uint256",
          "name": "time",
          "type": "uint256"
        },
        {
          "components": [
            {
              "internalType": "address",
              "name": "manufacturer",
              "type": "address"
            },
            {
              "internalType": "string",
              "name": "productName",
              "type": "string"
            },
            {
              "internalType": "uint256",
              "name": "identifier",
              "type": "uint256"
            },
            {
              "internalType": "uint256",
              "name": "dateOfManufacturing",
              "type": "uint256"
            },
            {
              "internalType": "uint256",
              "name": "dateOfExpiry",
              "type": "uint256"
            },
            {
              "internalType": "string",
              "name": "manufacturingNo",
              "type": "string"
            },
            {
              "internalType": "uint256",
              "name": "batchNo",
              "type": "uint256"
            },
            {
              "internalType": "uint256",
              "name": "costOfProduct",
              "type": "uint256"
            },
            {
              "internalType": "uint256",
              "name": "quantity",
              "type": "uint256"
            }
          ],
          "internalType": "struct SCM.Product",
          "name": "product",
          "type": "tuple"
        }
      ],
      "stateMutability": "view",
      "type": "function"
    },
    {
      "inputs": [],
      "name": "owner",
      "outputs": [
        {
          "internalType": "address",
          "name": "",
          "type": "address"
        }
      ],
      "stateMutability": "view",
      "type": "function"
    },
    {
      "inputs": [
        {
          "internalType": "uint256",
          "name": "",
          "type": "uint256"
        }
      ],
      "name": "products",
      "outputs": [
        {
          "internalType": "address",
          "name": "manufacturer",
          "type": "address"
        },
        {
          "internalType": "string",
          "name": "productName",
          "type": "string"
        },
        {
          "internalType": "uint256",
          "name": "identifier",
          "type": "uint256"
        },
        {
          "internalType": "uint256",
          "name": "dateOfManufacturing",
          "type": "uint256"
        },
        {
          "internalType": "uint256",
          "name": "dateOfExpiry",
          "type": "uint256"
        },
        {
          "internalType": "string",
          "name": "manufacturingNo",
          "type": "string"
        },
        {
          "internalType": "uint256",
          "name": "batchNo",
          "type": "uint256"
        },
        {
          "internalType": "uint256",
          "name": "costOfProduct",
          "type": "uint256"
        },
        {
          "internalType": "uint256",
          "name": "quantity",
          "type": "uint256"
        }
      ],
      "stateMutability": "view",
      "type": "function"
    },
    {
      "inputs": [
        {
          "internalType": "string",
          "name": "_productName",
          "type": "string"
        },
        {
          "internalType": "uint256",
          "name": "_dateOfManufacturing",
          "type": "uint256"
        },
        {
          "internalType": "uint256",
          "name": "_dateOfExpiry",
          "type": "uint256"
        },
        {
          "internalType": "string",
          "name": "_manufacturingNo",
          "type": "string"
        },
        {
          "internalType": "uint256",
          "name": "_batchNo",
          "type": "uint256"
        },
        {
          "internalType": "uint256",
          "name": "_costOfProduct",
          "type": "uint256"
        },
        {
          "internalType": "uint256",
          "name": "_quantity",
          "type": "uint256"
        }
      ],
      "name": "uploadProduct",
      "outputs": [
        {
          "internalType": "bool",
          "name": "",
          "type": "bool"
        }
      ],
      "stateMutability": "nonpayable",
      "type": "function"
    },
    {
      "inputs": [],
      "name": "withdraw",
      "outputs": [],
      "stateMutability": "nonpayable",
      "type": "function"
    }
  ],
  "bytecode": "0x60806040526001805534801561001457600080fd5b50336000806101000a81548173ffffffffffffffffffffffffffffffffffffffff021916908373ffffffffffffffffffffffffffffffffffffffff160217905550611afa806100646000396000f3fe6080604052600436106100915760003560e01c80637acc0b20116100595780637acc0b20146101835780638da5cb5b146101c8578063a7a38f0b146101f3578063ad7b891e14610232578063db34d1231461026f57610091565b80633ccfd60b1461009657806353b62866146100ad578063713d856b146100dd578063793b8c6d1461011a5780637998a1c414610158575b600080fd5b3480156100a257600080fd5b506100ab6102ac565b005b6100c760048036038101906100c29190610f15565b61039e565b6040516100d49190610f70565b60405180910390f35b3480156100e957600080fd5b5061010460048036038101906100ff9190610fe9565b610822565b6040516101119190611025565b60405180910390f35b34801561012657600080fd5b50610141600480360381019061013c9190611040565b61083a565b60405161014f9291906111fa565b60405180910390f35b34801561016457600080fd5b5061016d610a2c565b60405161017a9190611025565b60405180910390f35b34801561018f57600080fd5b506101aa60048036038101906101a5919061122a565b610a32565b6040516101bf999897969594939291906112b0565b60405180910390f35b3480156101d457600080fd5b506101dd610bb0565b6040516101ea919061134b565b60405180910390f35b3480156101ff57600080fd5b5061021a6004803603810190610215919061122a565b610bd4565b60405161022993929190611366565b60405180910390f35b34801561023e57600080fd5b50610259600480360381019061025491906114d9565b610ca6565b6040516102669190610f70565b60405180910390f35b34801561027b57600080fd5b506102966004803603810190610291919061122a565b610e91565b6040516102a39190611025565b60405180910390f35b60008054906101000a900473ffffffffffffffffffffffffffffffffffffffff1673ffffffffffffffffffffffffffffffffffffffff163373ffffffffffffffffffffffffffffffffffffffff161461030457600080fd5b60008060009054906101000a900473ffffffffffffffffffffffffffffffffffffffff1673ffffffffffffffffffffffffffffffffffffffff164760405161034b906115e4565b60006040518083038185875af1925050503d8060008114610388576040519150601f19603f3d011682016040523d82523d6000602084013e61038d565b606091505b505090508061039b57600080fd5b50565b600034826103ac9190611628565b600260008581526020019081526020016000206007015411156103ce57600080fd5b60006002600085815260200190815260200160002060080154116103f157600080fd5b6000604051806040016040528042815260200160026000878152602001908152602001600020604051806101200160405290816000820160009054906101000a900473ffffffffffffffffffffffffffffffffffffffff1673ffffffffffffffffffffffffffffffffffffffff1673ffffffffffffffffffffffffffffffffffffffff16815260200160018201805461048990611699565b80601f01602080910402602001604051908101604052809291908181526020018280546104b590611699565b80156105025780601f106104d757610100808354040283529160200191610502565b820191906000526020600020905b8154815290600101906020018083116104e557829003601f168201915b5050505050815260200160028201548152602001600382015481526020016004820154815260200160058201805461053990611699565b80601f016020809104026020016040519081016040528092919081815260200182805461056590611699565b80156105b25780601f10610587576101008083540402835291602001916105b2565b820191906000526020600020905b81548152906001019060200180831161059557829003601f168201915b5050505050815260200160068201548152602001600782015481526020016008820154815250508152509050600360003373ffffffffffffffffffffffffffffffffffffffff1673ffffffffffffffffffffffffffffffffffffffff168152602001908152602001600020600081548092919061062e906116ca565b919050555080600460003373ffffffffffffffffffffffffffffffffffffffff1673ffffffffffffffffffffffffffffffffffffffff1681526020019081526020016000206000600360003373ffffffffffffffffffffffffffffffffffffffff1673ffffffffffffffffffffffffffffffffffffffff1681526020019081526020016000205481526020019081526020016000206000820151816000015560208201518160010160008201518160000160006101000a81548173ffffffffffffffffffffffffffffffffffffffff021916908373ffffffffffffffffffffffffffffffffffffffff160217905550602082015181600101908161073291906118be565b5060408201518160020155606082015181600301556080820151816004015560a082015181600501908161076691906118be565b5060c0820151816006015560e08201518160070155610100820151816008015550509050508260026000868152602001908152602001600020600801546107ad9190611990565b60026000868152602001908152602001600020600801819055507f4b2c270f7e267d4575b2d0d1d8d730d07e0a0ef9cc73a3a2102b51188f8e54e160026000868152602001908152602001600020600101843360405161080f93929190611a48565b60405180910390a1600191505092915050565b60036020528060005260406000206000915090505481565b60046020528160005260406000206020528060005260406000206000915091505080600001549080600101604051806101200160405290816000820160009054906101000a900473ffffffffffffffffffffffffffffffffffffffff1673ffffffffffffffffffffffffffffffffffffffff1673ffffffffffffffffffffffffffffffffffffffff1681526020016001820180546108d790611699565b80601f016020809104026020016040519081016040528092919081815260200182805461090390611699565b80156109505780601f1061092557610100808354040283529160200191610950565b820191906000526020600020905b81548152906001019060200180831161093357829003601f168201915b5050505050815260200160028201548152602001600382015481526020016004820154815260200160058201805461098790611699565b80601f01602080910402602001604051908101604052809291908181526020018280546109b390611699565b8015610a005780601f106109d557610100808354040283529160200191610a00565b820191906000526020600020905b8154815290600101906020018083116109e357829003601f168201915b505050505081526020016006820154815260200160078201548152602001600882015481525050905082565b60015481565b60026020528060005260406000206000915090508060000160009054906101000a900473ffffffffffffffffffffffffffffffffffffffff1690806001018054610a7b90611699565b80601f0160208091040260200160405190810160405280929190818152602001828054610aa790611699565b8015610af45780601f10610ac957610100808354040283529160200191610af4565b820191906000526020600020905b815481529060010190602001808311610ad757829003601f168201915b505050505090806002015490806003015490806004015490806005018054610b1b90611699565b80601f0160208091040260200160405190810160405280929190818152602001828054610b4790611699565b8015610b945780601f10610b6957610100808354040283529160200191610b94565b820191906000526020600020905b815481529060010190602001808311610b7757829003601f168201915b5050505050908060060154908060070154908060080154905089565b60008054906101000a900473ffffffffffffffffffffffffffffffffffffffff1681565b60056020528060005260406000206000915090508060000160009054906101000a900473ffffffffffffffffffffffffffffffffffffffff1690806001015490806002018054610c2390611699565b80601f0160208091040260200160405190810160405280929190818152602001828054610c4f90611699565b8015610c9c5780601f10610c7157610100808354040283529160200191610c9c565b820191906000526020600020905b815481529060010190602001808311610c7f57829003601f168201915b5050505050905083565b60008060009054906101000a900473ffffffffffffffffffffffffffffffffffffffff1673ffffffffffffffffffffffffffffffffffffffff163373ffffffffffffffffffffffffffffffffffffffff1614610d0157600080fd5b60006040518061012001604052803373ffffffffffffffffffffffffffffffffffffffff1681526020018a81526020016001548152602001898152602001888152602001878152602001868152602001858152602001848152509050610d65610eb1565b806002600060018054610d789190611990565b815260200190815260200160002060008201518160000160006101000a81548173ffffffffffffffffffffffffffffffffffffffff021916908373ffffffffffffffffffffffffffffffffffffffff1602179055506020820151816001019081610de291906118be565b5060408201518160020155606082015181600301556080820151816004015560a0820151816005019081610e1691906118be565b5060c0820151816006015560e0820151816007015561010082015181600801559050507f0caf64fb326f49006e08f86cf26521cd11f29f9741c14e6fa461b7ab29bda71560018054610e689190611990565b848b604051610e7993929190611a86565b60405180910390a16001915050979650505050505050565b600060026000838152602001908152602001600020600801549050919050565b60016000815480929190610ec4906116ca565b9190505550565b6000604051905090565b600080fd5b600080fd5b6000819050919050565b610ef281610edf565b8114610efd57600080fd5b50565b600081359050610f0f81610ee9565b92915050565b60008060408385031215610f2c57610f2b610ed5565b5b6000610f3a85828601610f00565b9250506020610f4b85828601610f00565b9150509250929050565b60008115159050919050565b610f6a81610f55565b82525050565b6000602082019050610f856000830184610f61565b92915050565b600073ffffffffffffffffffffffffffffffffffffffff82169050919050565b6000610fb682610f8b565b9050919050565b610fc681610fab565b8114610fd157600080fd5b50565b600081359050610fe381610fbd565b92915050565b600060208284031215610fff57610ffe610ed5565b5b600061100d84828501610fd4565b91505092915050565b61101f81610edf565b82525050565b600060208201905061103a6000830184611016565b92915050565b6000806040838503121561105757611056610ed5565b5b600061106585828601610fd4565b925050602061107685828601610f00565b9150509250929050565b61108981610fab565b82525050565b600081519050919050565b600082825260208201905092915050565b60005b838110156110c95780820151818401526020810190506110ae565b60008484015250505050565b6000601f19601f8301169050919050565b60006110f18261108f565b6110fb818561109a565b935061110b8185602086016110ab565b611114816110d5565b840191505092915050565b61112881610edf565b82525050565b6000610120830160008301516111476000860182611080565b506020830151848203602086015261115f82826110e6565b9150506040830151611174604086018261111f565b506060830151611187606086018261111f565b50608083015161119a608086018261111f565b5060a083015184820360a08601526111b282826110e6565b91505060c08301516111c760c086018261111f565b5060e08301516111da60e086018261111f565b506101008301516111ef61010086018261111f565b508091505092915050565b600060408201905061120f6000830185611016565b8181036020830152611221818461112e565b90509392505050565b6000602082840312156112405761123f610ed5565b5b600061124e84828501610f00565b91505092915050565b61126081610fab565b82525050565b600082825260208201905092915050565b60006112828261108f565b61128c8185611266565b935061129c8185602086016110ab565b6112a5816110d5565b840191505092915050565b6000610120820190506112c6600083018c611257565b81810360208301526112d8818b611277565b90506112e7604083018a611016565b6112f46060830189611016565b6113016080830188611016565b81810360a08301526113138187611277565b905061132260c0830186611016565b61132f60e0830185611016565b61133d610100830184611016565b9a9950505050505050505050565b60006020820190506113606000830184611257565b92915050565b600060608201905061137b6000830186611257565b6113886020830185611016565b818103604083015261139a8184611277565b9050949350505050565b600080fd5b600080fd5b7f4e487b7100000000000000000000000000000000000000000000000000000000600052604160045260246000fd5b6113e6826110d5565b810181811067ffffffffffffffff82111715611405576114046113ae565b5b80604052505050565b6000611418610ecb565b905061142482826113dd565b919050565b600067ffffffffffffffff821115611444576114436113ae565b5b61144d826110d5565b9050602081019050919050565b82818337600083830152505050565b600061147c61147784611429565b61140e565b905082815260208101848484011115611498576114976113a9565b5b6114a384828561145a565b509392505050565b600082601f8301126114c0576114bf6113a4565b5b81356114d0848260208601611469565b91505092915050565b600080600080600080600060e0888a0312156114f8576114f7610ed5565b5b600088013567ffffffffffffffff81111561151657611515610eda565b5b6115228a828b016114ab565b97505060206115338a828b01610f00565b96505060406115448a828b01610f00565b955050606088013567ffffffffffffffff81111561156557611564610eda565b5b6115718a828b016114ab565b94505060806115828a828b01610f00565b93505060a06115938a828b01610f00565b92505060c06115a48a828b01610f00565b91505092959891949750929550565b600081905092915050565b50565b60006115ce6000836115b3565b91506115d9826115be565b600082019050919050565b60006115ef826115c1565b9150819050919050565b7f4e487b7100000000000000000000000000000000000000000000000000000000600052601160045260246000fd5b600061163382610edf565b915061163e83610edf565b925082820261164c81610edf565b91508282048414831517611663576116626115f9565b5b5092915050565b7f4e487b7100000000000000000000000000000000000000000000000000000000600052602260045260246000fd5b600060028204905060018216806116b157607f821691505b6020821081036116c4576116c361166a565b5b50919050565b60006116d582610edf565b91507fffffffffffffffffffffffffffffffffffffffffffffffffffffffffffffffff8203611707576117066115f9565b5b600182019050919050565b60008190508160005260206000209050919050565b60006020601f8301049050919050565b600082821b905092915050565b6000600883026117747fffffffffffffffffffffffffffffffffffffffffffffffffffffffffffffffff82611737565b61177e8683611737565b95508019841693508086168417925050509392505050565b6000819050919050565b60006117bb6117b66117b184610edf565b611796565b610edf565b9050919050565b6000819050919050565b6117d5836117a0565b6117e96117e1826117c2565b848454611744565b825550505050565b600090565b6117fe6117f1565b6118098184846117cc565b505050565b5b8181101561182d576118226000826117f6565b60018101905061180f565b5050565b601f8211156118725761184381611712565b61184c84611727565b8101602085101561185b578190505b61186f61186785611727565b83018261180e565b50505b505050565b600082821c905092915050565b600061189560001984600802611877565b1980831691505092915050565b60006118ae8383611884565b9150826002028217905092915050565b6118c78261108f565b67ffffffffffffffff8111156118e0576118df6113ae565b5b6118ea8254611699565b6118f5828285611831565b600060209050601f8311600181146119285760008415611916578287015190505b61192085826118a2565b865550611988565b601f19841661193686611712565b60005b8281101561195e57848901518255600182019150602085019450602081019050611939565b8683101561197b5784890151611977601f891682611884565b8355505b6001600288020188555050505b505050505050565b600061199b82610edf565b91506119a683610edf565b92508282039050818111156119be576119bd6115f9565b5b92915050565b600081546119d181611699565b6119db8186611266565b945060018216600081146119f65760018114611a0c57611a3f565b60ff198316865281151560200286019350611a3f565b611a1585611712565b60005b83811015611a3757815481890152600182019150602081019050611a18565b808801955050505b50505092915050565b60006060820190508181036000830152611a6281866119c4565b9050611a716020830185611016565b611a7e6040830184611257565b949350505050565b6000606082019050611a9b6000830186611016565b611aa86020830185611016565b8181036040830152611aba8184611277565b905094935050505056fea2646970667358221220be9e3b37f3293e33df89e3e2d4cc44d641f2053ae5862a5d08b09582fc92598464736f6c63430008110033",
  "linkReferences": {},
  "deployedLinkReferences": {}
}