{
  "_format": "hh-sol-artifact-1",
  "contractName": "SCM",
  "sourceName": "contracts/SCM.sol",
  "abi": [
    {
      "inputs": [],
      "stateMutability": "nonpayable",
      "type": "constructor"
    },
    {
      "anonymous": false,
      "inputs": [
        {
          "indexed": false,
          "internalType": "string",
          "name": "productName",
          "type": "string"
        },
        {
          "indexed": false,
          "internalType": "uint256",
          "name": "quantity",
          "type": "uint256"
        },
        {
          "indexed": false,
          "internalType": "address",
          "name": "buyer",
          "type": "address"
        }
      ],
      "name": "BoughtProduct",
      "type": "event"
    },
    {
      "anonymous": false,
      "inputs": [
        {
          "indexed": false,
          "internalType": "uint256",
          "name": "identifier",
          "type": "uint256"
        },
        {
          "indexed": false,
          "internalType": "uint256",
          "name": "quantity",
          "type": "uint256"
        },
        {
          "indexed": false,
          "internalType": "string",
          "name": "productName",
          "type": "string"
        }
      ],
      "name": "UploadProduct",
      "type": "event"
    },
    {
      "inputs": [
        {
          "internalType": "uint256",
          "name": "_identifier",
          "type": "uint256"
        },
        {
          "internalType": "uint256",
          "name": "_quantity",
          "type": "uint256"
        }
      ],
      "name": "buyProduct",
      "outputs": [
        {
          "internalType": "bool",
          "name": "",
          "type": "bool"
        }
      ],
      "stateMutability": "payable",
      "type": "function"
    },
    {
      "inputs": [
        {
          "internalType": "uint256",
          "name": "_identifier",
          "type": "uint256"
        }
      ],
      "name": "getProductQuantity",
      "outputs": [
        {
          "internalType": "uint256",
          "name": "",
          "type": "uint256"
        }
      ],
      "stateMutability": "view",
      "type": "function"
    },
    {
      "inputs": [],
      "name": "identifier",
      "outputs": [
        {
          "internalType": "uint256",
          "name": "",
          "type": "uint256"
        }
      ],
      "stateMutability": "view",
      "type": "function"
    },
    {
      "inputs": [
        {
          "internalType": "address",
          "name": "",
          "type": "address"
        }
      ],
      "name": "orderCount",
      "outputs": [
        {
          "internalType": "uint256",
          "name": "",
          "type": "uint256"
        }
      ],
      "stateMutability": "view",
      "type": "function"
    },
    {
      "inputs": [
        {
          "internalType": "address",
          "name": "",
          "type": "address"
        },
        {
          "internalType": "uint256",
          "name": "",
          "type": "uint256"
        }
      ],
      "name": "orders",
      "outputs": [
        {
          "internalType": "uint256",
          "name": "time",
          "type": "uint256"
        },
        {
          "components": [
            {
              "internalType": "address",
              "name": "manufacturer",
              "type": "address"
            },
            {
              "internalType": "string",
              "name": "productName",
              "type": "string"
            },
            {
              "internalType": "uint256",
              "name": "identifier",
              "type": "uint256"
            },
            {
              "internalType": "uint256",
              "name": "dateOfManufacturing",
              "type": "uint256"
            },
            {
              "internalType": "uint256",
              "name": "dateOfExpiry",
              "type": "uint256"
            },
            {
              "internalType": "string",
              "name": "manufacturingNo",
              "type": "string"
            },
            {
              "internalType": "uint256",
              "name": "batchNo",
              "type": "uint256"
            },
            {
              "internalType": "uint256",
              "name": "costOfProduct",
              "type": "uint256"
            },
            {
              "internalType": "uint256",
              "name": "quantity",
              "type": "uint256"
            },
            {
              "components": [
                {
                  "internalType": "address",
                  "name": "productOwner",
                  "type": "address"
                },
                {
                  "internalType": "string",
                  "name": "productLocation",
                  "type": "string"
                }
              ],
              "internalType": "struct SCM.State",
              "name": "stateOfProduct",
              "type": "tuple"
            }
          ],
          "internalType": "struct SCM.Product",
          "name": "product",
          "type": "tuple"
        }
      ],
      "stateMutability": "view",
      "type": "function"
    },
    {
      "inputs": [],
      "name": "owner",
      "outputs": [
        {
          "internalType": "address",
          "name": "",
          "type": "address"
        }
      ],
      "stateMutability": "view",
      "type": "function"
    },
    {
      "inputs": [
        {
          "internalType": "uint256",
          "name": "",
          "type": "uint256"
        }
      ],
      "name": "products",
      "outputs": [
        {
          "internalType": "address",
          "name": "manufacturer",
          "type": "address"
        },
        {
          "internalType": "string",
          "name": "productName",
          "type": "string"
        },
        {
          "internalType": "uint256",
          "name": "identifier",
          "type": "uint256"
        },
        {
          "internalType": "uint256",
          "name": "dateOfManufacturing",
          "type": "uint256"
        },
        {
          "internalType": "uint256",
          "name": "dateOfExpiry",
          "type": "uint256"
        },
        {
          "internalType": "string",
          "name": "manufacturingNo",
          "type": "string"
        },
        {
          "internalType": "uint256",
          "name": "batchNo",
          "type": "uint256"
        },
        {
          "internalType": "uint256",
          "name": "costOfProduct",
          "type": "uint256"
        },
        {
          "internalType": "uint256",
          "name": "quantity",
          "type": "uint256"
        },
        {
          "components": [
            {
              "internalType": "address",
              "name": "productOwner",
              "type": "address"
            },
            {
              "internalType": "string",
              "name": "productLocation",
              "type": "string"
            }
          ],
          "internalType": "struct SCM.State",
          "name": "stateOfProduct",
          "type": "tuple"
        }
      ],
      "stateMutability": "view",
      "type": "function"
    },
    {
      "inputs": [
        {
          "internalType": "uint256",
          "name": "_identifier",
          "type": "uint256"
        },
        {
          "internalType": "string",
          "name": "newLocation",
          "type": "string"
        }
      ],
      "name": "updateLocation",
      "outputs": [],
      "stateMutability": "nonpayable",
      "type": "function"
    },
    {
      "inputs": [
        {
          "internalType": "string",
          "name": "_productName",
          "type": "string"
        },
        {
          "internalType": "uint256",
          "name": "_dateOfManufacturing",
          "type": "uint256"
        },
        {
          "internalType": "uint256",
          "name": "_dateOfExpiry",
          "type": "uint256"
        },
        {
          "internalType": "string",
          "name": "_manufacturingNo",
          "type": "string"
        },
        {
          "internalType": "uint256",
          "name": "_batchNo",
          "type": "uint256"
        },
        {
          "internalType": "uint256",
          "name": "_costOfProduct",
          "type": "uint256"
        },
        {
          "internalType": "uint256",
          "name": "_quantity",
          "type": "uint256"
        }
      ],
      "name": "uploadProduct",
      "outputs": [
        {
          "internalType": "bool",
          "name": "",
          "type": "bool"
        }
      ],
      "stateMutability": "nonpayable",
      "type": "function"
    },
    {
      "inputs": [],
      "name": "withdraw",
      "outputs": [],
      "stateMutability": "nonpayable",
      "type": "function"
    }
  ],
  "bytecode": "0x60806040526001805534801561001457600080fd5b50336000806101000a81548173ffffffffffffffffffffffffffffffffffffffff021916908373ffffffffffffffffffffffffffffffffffffffff160217905550611f77806100646000396000f3fe6080604052600436106100915760003560e01c80637998a1c4116100595780637998a1c4146101815780637acc0b20146101ac5780638da5cb5b146101f2578063ad7b891e1461021d578063db34d1231461025a57610091565b80633ccfd60b146100965780634ec0c9e9146100ad57806353b62866146100d6578063713d856b14610106578063793b8c6d14610143575b600080fd5b3480156100a257600080fd5b506100ab610297565b005b3480156100b957600080fd5b506100d460048036038101906100cf919061140e565b610389565b005b6100f060048036038101906100eb919061146a565b610422565b6040516100fd91906114c5565b60405180910390f35b34801561011257600080fd5b5061012d6004803603810190610128919061153e565b610a0b565b60405161013a919061157a565b60405180910390f35b34801561014f57600080fd5b5061016a60048036038101906101659190611595565b610a23565b604051610178929190611797565b60405180910390f35b34801561018d57600080fd5b50610196610d11565b6040516101a3919061157a565b60405180910390f35b3480156101b857600080fd5b506101d360048036038101906101ce91906117c7565b610d17565b6040516101e99a9998979695949392919061188a565b60405180910390f35b3480156101fe57600080fd5b50610207610f8d565b604051610214919061193b565b60405180910390f35b34801561022957600080fd5b50610244600480360381019061023f9190611956565b610fb1565b60405161025191906114c5565b60405180910390f35b34801561026657600080fd5b50610281600480360381019061027c91906117c7565b611244565b60405161028e919061157a565b60405180910390f35b60008054906101000a900473ffffffffffffffffffffffffffffffffffffffff1673ffffffffffffffffffffffffffffffffffffffff163373ffffffffffffffffffffffffffffffffffffffff16146102ef57600080fd5b60008060009054906101000a900473ffffffffffffffffffffffffffffffffffffffff1673ffffffffffffffffffffffffffffffffffffffff164760405161033690611a61565b60006040518083038185875af1925050503d8060008114610373576040519150601f19603f3d011682016040523d82523d6000602084013e610378565b606091505b505090508061038657600080fd5b50565b3373ffffffffffffffffffffffffffffffffffffffff166002600084815260200190815260200160002060000160009054906101000a900473ffffffffffffffffffffffffffffffffffffffff1673ffffffffffffffffffffffffffffffffffffffff16146103f757600080fd5b8060026000848152602001908152602001600020600901600101908161041d9190611c82565b505050565b600034826104309190611d83565b6002600085815260200190815260200160002060070154111561045257600080fd5b600060026000858152602001908152602001600020600801541161047557600080fd5b6000604051806040016040528042815260200160026000878152602001908152602001600020604051806101400160405290816000820160009054906101000a900473ffffffffffffffffffffffffffffffffffffffff1673ffffffffffffffffffffffffffffffffffffffff1673ffffffffffffffffffffffffffffffffffffffff16815260200160018201805461050d90611aa5565b80601f016020809104026020016040519081016040528092919081815260200182805461053990611aa5565b80156105865780601f1061055b57610100808354040283529160200191610586565b820191906000526020600020905b81548152906001019060200180831161056957829003601f168201915b505050505081526020016002820154815260200160038201548152602001600482015481526020016005820180546105bd90611aa5565b80601f01602080910402602001604051908101604052809291908181526020018280546105e990611aa5565b80156106365780601f1061060b57610100808354040283529160200191610636565b820191906000526020600020905b81548152906001019060200180831161061957829003601f168201915b50505050508152602001600682015481526020016007820154815260200160088201548152602001600982016040518060400160405290816000820160009054906101000a900473ffffffffffffffffffffffffffffffffffffffff1673ffffffffffffffffffffffffffffffffffffffff1673ffffffffffffffffffffffffffffffffffffffff1681526020016001820180546106d390611aa5565b80601f01602080910402602001604051908101604052809291908181526020018280546106ff90611aa5565b801561074c5780601f106107215761010080835404028352916020019161074c565b820191906000526020600020905b81548152906001019060200180831161072f57829003601f168201915b505050505081525050815250508152509050600360003373ffffffffffffffffffffffffffffffffffffffff1673ffffffffffffffffffffffffffffffffffffffff16815260200190815260200160002060008154809291906107ae90611dc5565b919050555080600460003373ffffffffffffffffffffffffffffffffffffffff1673ffffffffffffffffffffffffffffffffffffffff1681526020019081526020016000206000600360003373ffffffffffffffffffffffffffffffffffffffff1673ffffffffffffffffffffffffffffffffffffffff1681526020019081526020016000205481526020019081526020016000206000820151816000015560208201518160010160008201518160000160006101000a81548173ffffffffffffffffffffffffffffffffffffffff021916908373ffffffffffffffffffffffffffffffffffffffff16021790555060208201518160010190816108b29190611c82565b5060408201518160020155606082015181600301556080820151816004015560a08201518160050190816108e69190611c82565b5060c0820151816006015560e0820151816007015561010082015181600801556101208201518160090160008201518160000160006101000a81548173ffffffffffffffffffffffffffffffffffffffff021916908373ffffffffffffffffffffffffffffffffffffffff160217905550602082015181600101908161096c9190611c82565b50505050509050508260026000868152602001908152602001600020600801546109969190611e0d565b60026000868152602001908152602001600020600801819055507f4b2c270f7e267d4575b2d0d1d8d730d07e0a0ef9cc73a3a2102b51188f8e54e16002600086815260200190815260200160002060010184336040516109f893929190611ec5565b60405180910390a1600191505092915050565b60036020528060005260406000206000915090505481565b60046020528160005260406000206020528060005260406000206000915091505080600001549080600101604051806101400160405290816000820160009054906101000a900473ffffffffffffffffffffffffffffffffffffffff1673ffffffffffffffffffffffffffffffffffffffff1673ffffffffffffffffffffffffffffffffffffffff168152602001600182018054610ac090611aa5565b80601f0160208091040260200160405190810160405280929190818152602001828054610aec90611aa5565b8015610b395780601f10610b0e57610100808354040283529160200191610b39565b820191906000526020600020905b815481529060010190602001808311610b1c57829003601f168201915b50505050508152602001600282015481526020016003820154815260200160048201548152602001600582018054610b7090611aa5565b80601f0160208091040260200160405190810160405280929190818152602001828054610b9c90611aa5565b8015610be95780601f10610bbe57610100808354040283529160200191610be9565b820191906000526020600020905b815481529060010190602001808311610bcc57829003601f168201915b50505050508152602001600682015481526020016007820154815260200160088201548152602001600982016040518060400160405290816000820160009054906101000a900473ffffffffffffffffffffffffffffffffffffffff1673ffffffffffffffffffffffffffffffffffffffff1673ffffffffffffffffffffffffffffffffffffffff168152602001600182018054610c8690611aa5565b80601f0160208091040260200160405190810160405280929190818152602001828054610cb290611aa5565b8015610cff5780601f10610cd457610100808354040283529160200191610cff565b820191906000526020600020905b815481529060010190602001808311610ce257829003601f168201915b50505050508152505081525050905082565b60015481565b60026020528060005260406000206000915090508060000160009054906101000a900473ffffffffffffffffffffffffffffffffffffffff1690806001018054610d6090611aa5565b80601f0160208091040260200160405190810160405280929190818152602001828054610d8c90611aa5565b8015610dd95780601f10610dae57610100808354040283529160200191610dd9565b820191906000526020600020905b815481529060010190602001808311610dbc57829003601f168201915b505050505090806002015490806003015490806004015490806005018054610e0090611aa5565b80601f0160208091040260200160405190810160405280929190818152602001828054610e2c90611aa5565b8015610e795780601f10610e4e57610100808354040283529160200191610e79565b820191906000526020600020905b815481529060010190602001808311610e5c57829003601f168201915b505050505090806006015490806007015490806008015490806009016040518060400160405290816000820160009054906101000a900473ffffffffffffffffffffffffffffffffffffffff1673ffffffffffffffffffffffffffffffffffffffff1673ffffffffffffffffffffffffffffffffffffffff168152602001600182018054610f0690611aa5565b80601f0160208091040260200160405190810160405280929190818152602001828054610f3290611aa5565b8015610f7f5780601f10610f5457610100808354040283529160200191610f7f565b820191906000526020600020905b815481529060010190602001808311610f6257829003601f168201915b50505050508152505090508a565b60008054906101000a900473ffffffffffffffffffffffffffffffffffffffff1681565b60008060009054906101000a900473ffffffffffffffffffffffffffffffffffffffff1673ffffffffffffffffffffffffffffffffffffffff163373ffffffffffffffffffffffffffffffffffffffff161461100c57600080fd5b60006040518061014001604052803373ffffffffffffffffffffffffffffffffffffffff1681526020018a8152602001600154815260200189815260200188815260200187815260200186815260200185815260200184815260200160405180604001604052803373ffffffffffffffffffffffffffffffffffffffff1681526020016040518060200160405280600081525081525081525090506110af611264565b8060026000600180546110c29190611e0d565b815260200190815260200160002060008201518160000160006101000a81548173ffffffffffffffffffffffffffffffffffffffff021916908373ffffffffffffffffffffffffffffffffffffffff160217905550602082015181600101908161112c9190611c82565b5060408201518160020155606082015181600301556080820151816004015560a08201518160050190816111609190611c82565b5060c0820151816006015560e0820151816007015561010082015181600801556101208201518160090160008201518160000160006101000a81548173ffffffffffffffffffffffffffffffffffffffff021916908373ffffffffffffffffffffffffffffffffffffffff16021790555060208201518160010190816111e69190611c82565b5050509050507f0caf64fb326f49006e08f86cf26521cd11f29f9741c14e6fa461b7ab29bda7156001805461121b9190611e0d565b848b60405161122c93929190611f03565b60405180910390a16001915050979650505050505050565b600060026000838152602001908152602001600020600801549050919050565b6001600081548092919061127790611dc5565b9190505550565b6000604051905090565b600080fd5b600080fd5b6000819050919050565b6112a581611292565b81146112b057600080fd5b50565b6000813590506112c28161129c565b92915050565b600080fd5b600080fd5b6000601f19601f8301169050919050565b7f4e487b7100000000000000000000000000000000000000000000000000000000600052604160045260246000fd5b61131b826112d2565b810181811067ffffffffffffffff8211171561133a576113396112e3565b5b80604052505050565b600061134d61127e565b90506113598282611312565b919050565b600067ffffffffffffffff821115611379576113786112e3565b5b611382826112d2565b9050602081019050919050565b82818337600083830152505050565b60006113b16113ac8461135e565b611343565b9050828152602081018484840111156113cd576113cc6112cd565b5b6113d884828561138f565b509392505050565b600082601f8301126113f5576113f46112c8565b5b813561140584826020860161139e565b91505092915050565b6000806040838503121561142557611424611288565b5b6000611433858286016112b3565b925050602083013567ffffffffffffffff8111156114545761145361128d565b5b611460858286016113e0565b9150509250929050565b6000806040838503121561148157611480611288565b5b600061148f858286016112b3565b92505060206114a0858286016112b3565b9150509250929050565b60008115159050919050565b6114bf816114aa565b82525050565b60006020820190506114da60008301846114b6565b92915050565b600073ffffffffffffffffffffffffffffffffffffffff82169050919050565b600061150b826114e0565b9050919050565b61151b81611500565b811461152657600080fd5b50565b60008135905061153881611512565b92915050565b60006020828403121561155457611553611288565b5b600061156284828501611529565b91505092915050565b61157481611292565b82525050565b600060208201905061158f600083018461156b565b92915050565b600080604083850312156115ac576115ab611288565b5b60006115ba85828601611529565b92505060206115cb858286016112b3565b9150509250929050565b6115de81611500565b82525050565b600081519050919050565b600082825260208201905092915050565b60005b8381101561161e578082015181840152602081019050611603565b60008484015250505050565b6000611635826115e4565b61163f81856115ef565b935061164f818560208601611600565b611658816112d2565b840191505092915050565b61166c81611292565b82525050565b600060408301600083015161168a60008601826115d5565b50602083015184820360208601526116a2828261162a565b9150508091505092915050565b6000610140830160008301516116c860008601826115d5565b50602083015184820360208601526116e0828261162a565b91505060408301516116f56040860182611663565b5060608301516117086060860182611663565b50608083015161171b6080860182611663565b5060a083015184820360a0860152611733828261162a565b91505060c083015161174860c0860182611663565b5060e083015161175b60e0860182611663565b50610100830151611770610100860182611663565b5061012083015184820361012086015261178a8282611672565b9150508091505092915050565b60006040820190506117ac600083018561156b565b81810360208301526117be81846116af565b90509392505050565b6000602082840312156117dd576117dc611288565b5b60006117eb848285016112b3565b91505092915050565b6117fd81611500565b82525050565b600082825260208201905092915050565b600061181f826115e4565b6118298185611803565b9350611839818560208601611600565b611842816112d2565b840191505092915050565b600060408301600083015161186560008601826115d5565b506020830151848203602086015261187d828261162a565b9150508091505092915050565b6000610140820190506118a0600083018d6117f4565b81810360208301526118b2818c611814565b90506118c1604083018b61156b565b6118ce606083018a61156b565b6118db608083018961156b565b81810360a08301526118ed8188611814565b90506118fc60c083018761156b565b61190960e083018661156b565b61191761010083018561156b565b81810361012083015261192a818461184d565b90509b9a5050505050505050505050565b600060208201905061195060008301846117f4565b92915050565b600080600080600080600060e0888a03121561197557611974611288565b5b600088013567ffffffffffffffff8111156119935761199261128d565b5b61199f8a828b016113e0565b97505060206119b08a828b016112b3565b96505060406119c18a828b016112b3565b955050606088013567ffffffffffffffff8111156119e2576119e161128d565b5b6119ee8a828b016113e0565b94505060806119ff8a828b016112b3565b93505060a0611a108a828b016112b3565b92505060c0611a218a828b016112b3565b91505092959891949750929550565b600081905092915050565b50565b6000611a4b600083611a30565b9150611a5682611a3b565b600082019050919050565b6000611a6c82611a3e565b9150819050919050565b7f4e487b7100000000000000000000000000000000000000000000000000000000600052602260045260246000fd5b60006002820490506001821680611abd57607f821691505b602082108103611ad057611acf611a76565b5b50919050565b60008190508160005260206000209050919050565b60006020601f8301049050919050565b600082821b905092915050565b600060088302611b387fffffffffffffffffffffffffffffffffffffffffffffffffffffffffffffffff82611afb565b611b428683611afb565b95508019841693508086168417925050509392505050565b6000819050919050565b6000611b7f611b7a611b7584611292565b611b5a565b611292565b9050919050565b6000819050919050565b611b9983611b64565b611bad611ba582611b86565b848454611b08565b825550505050565b600090565b611bc2611bb5565b611bcd818484611b90565b505050565b5b81811015611bf157611be6600082611bba565b600181019050611bd3565b5050565b601f821115611c3657611c0781611ad6565b611c1084611aeb565b81016020851015611c1f578190505b611c33611c2b85611aeb565b830182611bd2565b50505b505050565b600082821c905092915050565b6000611c5960001984600802611c3b565b1980831691505092915050565b6000611c728383611c48565b9150826002028217905092915050565b611c8b826115e4565b67ffffffffffffffff811115611ca457611ca36112e3565b5b611cae8254611aa5565b611cb9828285611bf5565b600060209050601f831160018114611cec5760008415611cda578287015190505b611ce48582611c66565b865550611d4c565b601f198416611cfa86611ad6565b60005b82811015611d2257848901518255600182019150602085019450602081019050611cfd565b86831015611d3f5784890151611d3b601f891682611c48565b8355505b6001600288020188555050505b505050505050565b7f4e487b7100000000000000000000000000000000000000000000000000000000600052601160045260246000fd5b6000611d8e82611292565b9150611d9983611292565b9250828202611da781611292565b91508282048414831517611dbe57611dbd611d54565b5b5092915050565b6000611dd082611292565b91507fffffffffffffffffffffffffffffffffffffffffffffffffffffffffffffffff8203611e0257611e01611d54565b5b600182019050919050565b6000611e1882611292565b9150611e2383611292565b9250828203905081811115611e3b57611e3a611d54565b5b92915050565b60008154611e4e81611aa5565b611e588186611803565b94506001821660008114611e735760018114611e8957611ebc565b60ff198316865281151560200286019350611ebc565b611e9285611ad6565b60005b83811015611eb457815481890152600182019150602081019050611e95565b808801955050505b50505092915050565b60006060820190508181036000830152611edf8186611e41565b9050611eee602083018561156b565b611efb60408301846117f4565b949350505050565b6000606082019050611f18600083018661156b565b611f25602083018561156b565b8181036040830152611f378184611814565b905094935050505056fea2646970667358221220970068b0bab69c291c1d56961cccabefc4d1b2735cb85eaa2e82ba2fd6a50ae064736f6c63430008110033",
  "linkReferences": {},
  "deployedLinkReferences": {}
}