{
  "_format": "hh-sol-artifact-1",
  "contractName": "WarehouseOwner",
  "sourceName": "contracts/WarehouseOwner.sol",
  "abi": [
    {
      "anonymous": false,
      "inputs": [
        {
          "indexed": false,
          "internalType": "string",
          "name": "productName",
          "type": "string"
        },
        {
          "indexed": false,
          "internalType": "uint256",
          "name": "quantity",
          "type": "uint256"
        },
        {
          "indexed": false,
          "internalType": "address",
          "name": "buyer",
          "type": "address"
        }
      ],
      "name": "BoughtProduct",
      "type": "event"
    },
    {
      "anonymous": false,
      "inputs": [
        {
          "indexed": false,
          "internalType": "uint256",
          "name": "identifier",
          "type": "uint256"
        },
        {
          "indexed": false,
          "internalType": "uint256",
          "name": "quantity",
          "type": "uint256"
        },
        {
          "indexed": false,
          "internalType": "string",
          "name": "productName",
          "type": "string"
        }
      ],
      "name": "UploadProduct",
      "type": "event"
    },
    {
      "inputs": [
        {
          "internalType": "uint256",
          "name": "_identifier",
          "type": "uint256"
        },
        {
          "internalType": "uint256",
          "name": "_quantity",
          "type": "uint256"
        }
      ],
      "name": "buyProduct",
      "outputs": [
        {
          "internalType": "bool",
          "name": "",
          "type": "bool"
        }
      ],
      "stateMutability": "payable",
      "type": "function"
    },
    {
      "inputs": [
        {
          "internalType": "uint256",
          "name": "_identifier",
          "type": "uint256"
        },
        {
          "internalType": "string",
          "name": "_productName",
          "type": "string"
        },
        {
          "internalType": "uint256",
          "name": "_dateOfManufacturing",
          "type": "uint256"
        },
        {
          "internalType": "uint256",
          "name": "_dateOfExpiry",
          "type": "uint256"
        },
        {
          "internalType": "string",
          "name": "_manufacturingNo",
          "type": "string"
        },
        {
          "internalType": "uint256",
          "name": "_batchNo",
          "type": "uint256"
        },
        {
          "internalType": "uint256",
          "name": "_costOfProduct",
          "type": "uint256"
        },
        {
          "internalType": "uint256",
          "name": "_quantity",
          "type": "uint256"
        },
        {
          "internalType": "string",
          "name": "_managerInfo",
          "type": "string"
        }
      ],
      "name": "checkProduct",
      "outputs": [
        {
          "internalType": "bool",
          "name": "",
          "type": "bool"
        }
      ],
      "stateMutability": "nonpayable",
      "type": "function"
    },
    {
      "inputs": [
        {
          "internalType": "uint256",
          "name": "_identifier",
          "type": "uint256"
        },
        {
          "internalType": "string",
          "name": "_details",
          "type": "string"
        }
      ],
      "name": "dispatchProduct",
      "outputs": [],
      "stateMutability": "nonpayable",
      "type": "function"
    },
    {
      "inputs": [
        {
          "internalType": "uint256",
          "name": "_identifier",
          "type": "uint256"
        }
      ],
      "name": "getProductQuantity",
      "outputs": [
        {
          "internalType": "uint256",
          "name": "",
          "type": "uint256"
        }
      ],
      "stateMutability": "view",
      "type": "function"
    },
    {
      "inputs": [
        {
          "internalType": "uint256",
          "name": "",
          "type": "uint256"
        }
      ],
      "name": "history",
      "outputs": [
        {
          "internalType": "address",
          "name": "managerInfo",
          "type": "address"
        },
        {
          "internalType": "uint256",
          "name": "timeOfDelivery",
          "type": "uint256"
        },
        {
          "internalType": "string",
          "name": "details",
          "type": "string"
        }
      ],
      "stateMutability": "view",
      "type": "function"
    },
    {
      "inputs": [],
      "name": "identifier",
      "outputs": [
        {
          "internalType": "uint256",
          "name": "",
          "type": "uint256"
        }
      ],
      "stateMutability": "view",
      "type": "function"
    },
    {
      "inputs": [
        {
          "internalType": "address",
          "name": "",
          "type": "address"
        }
      ],
      "name": "managerDetails",
      "outputs": [
        {
          "internalType": "string",
          "name": "",
          "type": "string"
        }
      ],
      "stateMutability": "view",
      "type": "function"
    },
    {
      "inputs": [
        {
          "internalType": "address",
          "name": "",
          "type": "address"
        }
      ],
      "name": "orderCount",
      "outputs": [
        {
          "internalType": "uint256",
          "name": "",
          "type": "uint256"
        }
      ],
      "stateMutability": "view",
      "type": "function"
    },
    {
      "inputs": [
        {
          "internalType": "address",
          "name": "",
          "type": "address"
        },
        {
          "internalType": "uint256",
          "name": "",
          "type": "uint256"
        }
      ],
      "name": "orders",
      "outputs": [
        {
          "internalType": "uint256",
          "name": "time",
          "type": "uint256"
        },
        {
          "components": [
            {
              "internalType": "address",
              "name": "manufacturer",
              "type": "address"
            },
            {
              "internalType": "string",
              "name": "productName",
              "type": "string"
            },
            {
              "internalType": "uint256",
              "name": "identifier",
              "type": "uint256"
            },
            {
              "internalType": "uint256",
              "name": "dateOfManufacturing",
              "type": "uint256"
            },
            {
              "internalType": "uint256",
              "name": "dateOfExpiry",
              "type": "uint256"
            },
            {
              "internalType": "string",
              "name": "manufacturingNo",
              "type": "string"
            },
            {
              "internalType": "uint256",
              "name": "batchNo",
              "type": "uint256"
            },
            {
              "internalType": "uint256",
              "name": "costOfProduct",
              "type": "uint256"
            },
            {
              "internalType": "uint256",
              "name": "quantity",
              "type": "uint256"
            }
          ],
          "internalType": "struct SCM.Product",
          "name": "product",
          "type": "tuple"
        }
      ],
      "stateMutability": "view",
      "type": "function"
    },
    {
      "inputs": [],
      "name": "owner",
      "outputs": [
        {
          "internalType": "address",
          "name": "",
          "type": "address"
        }
      ],
      "stateMutability": "view",
      "type": "function"
    },
    {
      "inputs": [
        {
          "internalType": "uint256",
          "name": "",
          "type": "uint256"
        }
      ],
      "name": "products",
      "outputs": [
        {
          "internalType": "address",
          "name": "manufacturer",
          "type": "address"
        },
        {
          "internalType": "string",
          "name": "productName",
          "type": "string"
        },
        {
          "internalType": "uint256",
          "name": "identifier",
          "type": "uint256"
        },
        {
          "internalType": "uint256",
          "name": "dateOfManufacturing",
          "type": "uint256"
        },
        {
          "internalType": "uint256",
          "name": "dateOfExpiry",
          "type": "uint256"
        },
        {
          "internalType": "string",
          "name": "manufacturingNo",
          "type": "string"
        },
        {
          "internalType": "uint256",
          "name": "batchNo",
          "type": "uint256"
        },
        {
          "internalType": "uint256",
          "name": "costOfProduct",
          "type": "uint256"
        },
        {
          "internalType": "uint256",
          "name": "quantity",
          "type": "uint256"
        }
      ],
      "stateMutability": "view",
      "type": "function"
    },
    {
      "inputs": [
        {
          "internalType": "string",
          "name": "_productName",
          "type": "string"
        },
        {
          "internalType": "uint256",
          "name": "_dateOfManufacturing",
          "type": "uint256"
        },
        {
          "internalType": "uint256",
          "name": "_dateOfExpiry",
          "type": "uint256"
        },
        {
          "internalType": "string",
          "name": "_manufacturingNo",
          "type": "string"
        },
        {
          "internalType": "uint256",
          "name": "_batchNo",
          "type": "uint256"
        },
        {
          "internalType": "uint256",
          "name": "_costOfProduct",
          "type": "uint256"
        },
        {
          "internalType": "uint256",
          "name": "_quantity",
          "type": "uint256"
        }
      ],
      "name": "uploadProduct",
      "outputs": [
        {
          "internalType": "bool",
          "name": "",
          "type": "bool"
        }
      ],
      "stateMutability": "nonpayable",
      "type": "function"
    },
    {
      "inputs": [],
      "name": "withdraw",
      "outputs": [],
      "stateMutability": "nonpayable",
      "type": "function"
    }
  ],
  "bytecode": "0x60806040526001805534801561001457600080fd5b50336000806101000a81548173ffffffffffffffffffffffffffffffffffffffff021916908373ffffffffffffffffffffffffffffffffffffffff1602179055506121d2806100646000396000f3fe6080604052600436106100c25760003560e01c80637acc0b201161007f5780639bd94254116100595780639bd942541461028a578063a7a38f0b146102c7578063ad7b891e14610306578063db34d12314610343576100c2565b80637acc0b20146101f15780638da5cb5b14610236578063936adcfc14610261576100c2565b806309c6c147146100c75780633ccfd60b1461010457806353b628661461011b578063713d856b1461014b578063793b8c6d146101885780637998a1c4146101c6575b600080fd5b3480156100d357600080fd5b506100ee60048036038101906100e9919061138c565b610380565b6040516100fb9190611449565b60405180910390f35b34801561011057600080fd5b50610119610420565b005b610135600480360381019061013091906114a1565b610512565b60405161014291906114fc565b60405180910390f35b34801561015757600080fd5b50610172600480360381019061016d919061138c565b610996565b60405161017f9190611526565b60405180910390f35b34801561019457600080fd5b506101af60048036038101906101aa9190611541565b6109ae565b6040516101bd9291906116b5565b60405180910390f35b3480156101d257600080fd5b506101db610ba0565b6040516101e89190611526565b60405180910390f35b3480156101fd57600080fd5b50610218600480360381019061021391906116e5565b610ba6565b60405161022d99989796959493929190611721565b60405180910390f35b34801561024257600080fd5b5061024b610d24565b60405161025891906117bc565b60405180910390f35b34801561026d57600080fd5b506102886004803603810190610283919061190c565b610d48565b005b34801561029657600080fd5b506102b160048036038101906102ac9190611968565b610e00565b6040516102be91906114fc565b60405180910390f35b3480156102d357600080fd5b506102ee60048036038101906102e991906116e5565b611023565b6040516102fd93929190611a86565b60405180910390f35b34801561031257600080fd5b5061032d60048036038101906103289190611ac4565b6110f5565b60405161033a91906114fc565b60405180910390f35b34801561034f57600080fd5b5061036a600480360381019061036591906116e5565b6112e0565b6040516103779190611526565b60405180910390f35b6006602052806000526040600020600091509050805461039f90611bcd565b80601f01602080910402602001604051908101604052809291908181526020018280546103cb90611bcd565b80156104185780601f106103ed57610100808354040283529160200191610418565b820191906000526020600020905b8154815290600101906020018083116103fb57829003601f168201915b505050505081565b60008054906101000a900473ffffffffffffffffffffffffffffffffffffffff1673ffffffffffffffffffffffffffffffffffffffff163373ffffffffffffffffffffffffffffffffffffffff161461047857600080fd5b60008060009054906101000a900473ffffffffffffffffffffffffffffffffffffffff1673ffffffffffffffffffffffffffffffffffffffff16476040516104bf90611c2f565b60006040518083038185875af1925050503d80600081146104fc576040519150601f19603f3d011682016040523d82523d6000602084013e610501565b606091505b505090508061050f57600080fd5b50565b600034826105209190611c73565b6002600085815260200190815260200160002060070154111561054257600080fd5b600060026000858152602001908152602001600020600801541161056557600080fd5b6000604051806040016040528042815260200160026000878152602001908152602001600020604051806101200160405290816000820160009054906101000a900473ffffffffffffffffffffffffffffffffffffffff1673ffffffffffffffffffffffffffffffffffffffff1673ffffffffffffffffffffffffffffffffffffffff1681526020016001820180546105fd90611bcd565b80601f016020809104026020016040519081016040528092919081815260200182805461062990611bcd565b80156106765780601f1061064b57610100808354040283529160200191610676565b820191906000526020600020905b81548152906001019060200180831161065957829003601f168201915b505050505081526020016002820154815260200160038201548152602001600482015481526020016005820180546106ad90611bcd565b80601f01602080910402602001604051908101604052809291908181526020018280546106d990611bcd565b80156107265780601f106106fb57610100808354040283529160200191610726565b820191906000526020600020905b81548152906001019060200180831161070957829003601f168201915b5050505050815260200160068201548152602001600782015481526020016008820154815250508152509050600360003373ffffffffffffffffffffffffffffffffffffffff1673ffffffffffffffffffffffffffffffffffffffff16815260200190815260200160002060008154809291906107a290611cb5565b919050555080600460003373ffffffffffffffffffffffffffffffffffffffff1673ffffffffffffffffffffffffffffffffffffffff1681526020019081526020016000206000600360003373ffffffffffffffffffffffffffffffffffffffff1673ffffffffffffffffffffffffffffffffffffffff1681526020019081526020016000205481526020019081526020016000206000820151816000015560208201518160010160008201518160000160006101000a81548173ffffffffffffffffffffffffffffffffffffffff021916908373ffffffffffffffffffffffffffffffffffffffff16021790555060208201518160010190816108a69190611ea9565b5060408201518160020155606082015181600301556080820151816004015560a08201518160050190816108da9190611ea9565b5060c0820151816006015560e08201518160070155610100820151816008015550509050508260026000868152602001908152602001600020600801546109219190611f7b565b60026000868152602001908152602001600020600801819055507f4b2c270f7e267d4575b2d0d1d8d730d07e0a0ef9cc73a3a2102b51188f8e54e160026000868152602001908152602001600020600101843360405161098393929190612033565b60405180910390a1600191505092915050565b60036020528060005260406000206000915090505481565b60046020528160005260406000206020528060005260406000206000915091505080600001549080600101604051806101200160405290816000820160009054906101000a900473ffffffffffffffffffffffffffffffffffffffff1673ffffffffffffffffffffffffffffffffffffffff1673ffffffffffffffffffffffffffffffffffffffff168152602001600182018054610a4b90611bcd565b80601f0160208091040260200160405190810160405280929190818152602001828054610a7790611bcd565b8015610ac45780601f10610a9957610100808354040283529160200191610ac4565b820191906000526020600020905b815481529060010190602001808311610aa757829003601f168201915b50505050508152602001600282015481526020016003820154815260200160048201548152602001600582018054610afb90611bcd565b80601f0160208091040260200160405190810160405280929190818152602001828054610b2790611bcd565b8015610b745780601f10610b4957610100808354040283529160200191610b74565b820191906000526020600020905b815481529060010190602001808311610b5757829003601f168201915b505050505081526020016006820154815260200160078201548152602001600882015481525050905082565b60015481565b60026020528060005260406000206000915090508060000160009054906101000a900473ffffffffffffffffffffffffffffffffffffffff1690806001018054610bef90611bcd565b80601f0160208091040260200160405190810160405280929190818152602001828054610c1b90611bcd565b8015610c685780601f10610c3d57610100808354040283529160200191610c68565b820191906000526020600020905b815481529060010190602001808311610c4b57829003601f168201915b505050505090806002015490806003015490806004015490806005018054610c8f90611bcd565b80601f0160208091040260200160405190810160405280929190818152602001828054610cbb90611bcd565b8015610d085780601f10610cdd57610100808354040283529160200191610d08565b820191906000526020600020905b815481529060010190602001808311610ceb57829003601f168201915b5050505050908060060154908060070154908060080154905089565b60008054906101000a900473ffffffffffffffffffffffffffffffffffffffff1681565b600060405180606001604052803373ffffffffffffffffffffffffffffffffffffffff168152602001428152602001838152509050806005600085815260200190815260200160002060008201518160000160006101000a81548173ffffffffffffffffffffffffffffffffffffffff021916908373ffffffffffffffffffffffffffffffffffffffff160217905550602082015181600101556040820151816002019081610df79190611ea9565b50905050505050565b600089600260008c81526020019081526020016000206002015414610e2457600080fd5b600260008b8152602001908152602001600020600301548814610e4a5760009050611016565b600260008b8152602001908152602001600020600101604051602001610e7091906120ff565b6040516020818303038152906040528051906020012089604051602001610e979190612147565b6040516020818303038152906040528051906020012014610ebb5760009050611016565b600260008b8152602001908152602001600020600401548714610ee15760009050611016565b600260008b8152602001908152602001600020600501604051602001610f0791906120ff565b6040516020818303038152906040528051906020012086604051602001610f2e9190612147565b6040516020818303038152906040528051906020012014610f525760009050611016565b600260008b8152602001908152602001600020600601548514610f785760009050611016565b600260008b8152602001908152602001600020600701548414610f9e5760009050611016565b600260008b8152602001908152602001600020600801548314610fc45760009050611016565b81600660003373ffffffffffffffffffffffffffffffffffffffff1673ffffffffffffffffffffffffffffffffffffffff16815260200190815260200160002090816110109190611ea9565b50600190505b9998505050505050505050565b60056020528060005260406000206000915090508060000160009054906101000a900473ffffffffffffffffffffffffffffffffffffffff169080600101549080600201805461107290611bcd565b80601f016020809104026020016040519081016040528092919081815260200182805461109e90611bcd565b80156110eb5780601f106110c0576101008083540402835291602001916110eb565b820191906000526020600020905b8154815290600101906020018083116110ce57829003601f168201915b5050505050905083565b60008060009054906101000a900473ffffffffffffffffffffffffffffffffffffffff1673ffffffffffffffffffffffffffffffffffffffff163373ffffffffffffffffffffffffffffffffffffffff161461115057600080fd5b60006040518061012001604052803373ffffffffffffffffffffffffffffffffffffffff1681526020018a815260200160015481526020018981526020018881526020018781526020018681526020018581526020018481525090506111b4611300565b8060026000600180546111c79190611f7b565b815260200190815260200160002060008201518160000160006101000a81548173ffffffffffffffffffffffffffffffffffffffff021916908373ffffffffffffffffffffffffffffffffffffffff16021790555060208201518160010190816112319190611ea9565b5060408201518160020155606082015181600301556080820151816004015560a08201518160050190816112659190611ea9565b5060c0820151816006015560e0820151816007015561010082015181600801559050507f0caf64fb326f49006e08f86cf26521cd11f29f9741c14e6fa461b7ab29bda715600180546112b79190611f7b565b848b6040516112c89392919061215e565b60405180910390a16001915050979650505050505050565b600060026000838152602001908152602001600020600801549050919050565b6001600081548092919061131390611cb5565b9190505550565b6000604051905090565b600080fd5b600080fd5b600073ffffffffffffffffffffffffffffffffffffffff82169050919050565b60006113598261132e565b9050919050565b6113698161134e565b811461137457600080fd5b50565b60008135905061138681611360565b92915050565b6000602082840312156113a2576113a1611324565b5b60006113b084828501611377565b91505092915050565b600081519050919050565b600082825260208201905092915050565b60005b838110156113f35780820151818401526020810190506113d8565b60008484015250505050565b6000601f19601f8301169050919050565b600061141b826113b9565b61142581856113c4565b93506114358185602086016113d5565b61143e816113ff565b840191505092915050565b600060208201905081810360008301526114638184611410565b905092915050565b6000819050919050565b61147e8161146b565b811461148957600080fd5b50565b60008135905061149b81611475565b92915050565b600080604083850312156114b8576114b7611324565b5b60006114c68582860161148c565b92505060206114d78582860161148c565b9150509250929050565b60008115159050919050565b6114f6816114e1565b82525050565b600060208201905061151160008301846114ed565b92915050565b6115208161146b565b82525050565b600060208201905061153b6000830184611517565b92915050565b6000806040838503121561155857611557611324565b5b600061156685828601611377565b92505060206115778582860161148c565b9150509250929050565b61158a8161134e565b82525050565b600082825260208201905092915050565b60006115ac826113b9565b6115b68185611590565b93506115c68185602086016113d5565b6115cf816113ff565b840191505092915050565b6115e38161146b565b82525050565b6000610120830160008301516116026000860182611581565b506020830151848203602086015261161a82826115a1565b915050604083015161162f60408601826115da565b50606083015161164260608601826115da565b50608083015161165560808601826115da565b5060a083015184820360a086015261166d82826115a1565b91505060c083015161168260c08601826115da565b5060e083015161169560e08601826115da565b506101008301516116aa6101008601826115da565b508091505092915050565b60006040820190506116ca6000830185611517565b81810360208301526116dc81846115e9565b90509392505050565b6000602082840312156116fb576116fa611324565b5b60006117098482850161148c565b91505092915050565b61171b8161134e565b82525050565b600061012082019050611737600083018c611712565b8181036020830152611749818b611410565b9050611758604083018a611517565b6117656060830189611517565b6117726080830188611517565b81810360a08301526117848187611410565b905061179360c0830186611517565b6117a060e0830185611517565b6117ae610100830184611517565b9a9950505050505050505050565b60006020820190506117d16000830184611712565b92915050565b600080fd5b600080fd5b7f4e487b7100000000000000000000000000000000000000000000000000000000600052604160045260246000fd5b611819826113ff565b810181811067ffffffffffffffff82111715611838576118376117e1565b5b80604052505050565b600061184b61131a565b90506118578282611810565b919050565b600067ffffffffffffffff821115611877576118766117e1565b5b611880826113ff565b9050602081019050919050565b82818337600083830152505050565b60006118af6118aa8461185c565b611841565b9050828152602081018484840111156118cb576118ca6117dc565b5b6118d684828561188d565b509392505050565b600082601f8301126118f3576118f26117d7565b5b813561190384826020860161189c565b91505092915050565b6000806040838503121561192357611922611324565b5b60006119318582860161148c565b925050602083013567ffffffffffffffff81111561195257611951611329565b5b61195e858286016118de565b9150509250929050565b60008060008060008060008060006101208a8c03121561198b5761198a611324565b5b60006119998c828d0161148c565b99505060208a013567ffffffffffffffff8111156119ba576119b9611329565b5b6119c68c828d016118de565b98505060406119d78c828d0161148c565b97505060606119e88c828d0161148c565b96505060808a013567ffffffffffffffff811115611a0957611a08611329565b5b611a158c828d016118de565b95505060a0611a268c828d0161148c565b94505060c0611a378c828d0161148c565b93505060e0611a488c828d0161148c565b9250506101008a013567ffffffffffffffff811115611a6a57611a69611329565b5b611a768c828d016118de565b9150509295985092959850929598565b6000606082019050611a9b6000830186611712565b611aa86020830185611517565b8181036040830152611aba8184611410565b9050949350505050565b600080600080600080600060e0888a031215611ae357611ae2611324565b5b600088013567ffffffffffffffff811115611b0157611b00611329565b5b611b0d8a828b016118de565b9750506020611b1e8a828b0161148c565b9650506040611b2f8a828b0161148c565b955050606088013567ffffffffffffffff811115611b5057611b4f611329565b5b611b5c8a828b016118de565b9450506080611b6d8a828b0161148c565b93505060a0611b7e8a828b0161148c565b92505060c0611b8f8a828b0161148c565b91505092959891949750929550565b7f4e487b7100000000000000000000000000000000000000000000000000000000600052602260045260246000fd5b60006002820490506001821680611be557607f821691505b602082108103611bf857611bf7611b9e565b5b50919050565b600081905092915050565b50565b6000611c19600083611bfe565b9150611c2482611c09565b600082019050919050565b6000611c3a82611c0c565b9150819050919050565b7f4e487b7100000000000000000000000000000000000000000000000000000000600052601160045260246000fd5b6000611c7e8261146b565b9150611c898361146b565b9250828202611c978161146b565b91508282048414831517611cae57611cad611c44565b5b5092915050565b6000611cc08261146b565b91507fffffffffffffffffffffffffffffffffffffffffffffffffffffffffffffffff8203611cf257611cf1611c44565b5b600182019050919050565b60008190508160005260206000209050919050565b60006020601f8301049050919050565b600082821b905092915050565b600060088302611d5f7fffffffffffffffffffffffffffffffffffffffffffffffffffffffffffffffff82611d22565b611d698683611d22565b95508019841693508086168417925050509392505050565b6000819050919050565b6000611da6611da1611d9c8461146b565b611d81565b61146b565b9050919050565b6000819050919050565b611dc083611d8b565b611dd4611dcc82611dad565b848454611d2f565b825550505050565b600090565b611de9611ddc565b611df4818484611db7565b505050565b5b81811015611e1857611e0d600082611de1565b600181019050611dfa565b5050565b601f821115611e5d57611e2e81611cfd565b611e3784611d12565b81016020851015611e46578190505b611e5a611e5285611d12565b830182611df9565b50505b505050565b600082821c905092915050565b6000611e8060001984600802611e62565b1980831691505092915050565b6000611e998383611e6f565b9150826002028217905092915050565b611eb2826113b9565b67ffffffffffffffff811115611ecb57611eca6117e1565b5b611ed58254611bcd565b611ee0828285611e1c565b600060209050601f831160018114611f135760008415611f01578287015190505b611f0b8582611e8d565b865550611f73565b601f198416611f2186611cfd565b60005b82811015611f4957848901518255600182019150602085019450602081019050611f24565b86831015611f665784890151611f62601f891682611e6f565b8355505b6001600288020188555050505b505050505050565b6000611f868261146b565b9150611f918361146b565b9250828203905081811115611fa957611fa8611c44565b5b92915050565b60008154611fbc81611bcd565b611fc681866113c4565b94506001821660008114611fe15760018114611ff75761202a565b60ff19831686528115156020028601935061202a565b61200085611cfd565b60005b8381101561202257815481890152600182019150602081019050612003565b808801955050505b50505092915050565b6000606082019050818103600083015261204d8186611faf565b905061205c6020830185611517565b6120696040830184611712565b949350505050565b600081905092915050565b6000815461208981611bcd565b6120938186612071565b945060018216600081146120ae57600181146120c3576120f6565b60ff19831686528115158202860193506120f6565b6120cc85611cfd565b60005b838110156120ee578154818901526001820191506020810190506120cf565b838801955050505b50505092915050565b600061210b828461207c565b915081905092915050565b6000612121826113b9565b61212b8185612071565b935061213b8185602086016113d5565b80840191505092915050565b60006121538284612116565b915081905092915050565b60006060820190506121736000830186611517565b6121806020830185611517565b81810360408301526121928184611410565b905094935050505056fea2646970667358221220886962d091b9e181107b85c5cfeb39d0a91bc5db6f66183875d21e3a162f8d4764736f6c63430008110033",
  "linkReferences": {},
  "deployedLinkReferences": {}
}